:0300000002001EDD
:0C001E00787FE4F6D8FD75811C020065B7
:080003001201FA1201D480FB86
:0301AC00011CFE35
:10024200851C90AF1C7801EF08800123D8FDF51CB6
:010252002289
:100217003F065B4F666D7D077F6F777C395E79712F
:06022700FEFDFBF7EFDF16
:1001AF000C09FF00FF00FF00FF00FF00FF00010828
:0101BF00003F
:08000E00D2A77580C0C2A72231
:10015600E4F580D2A6E50825E0240AF8E6F580C293
:10016600A67580FFD2A7E50825E02409F8E6F58004
:0C017600C2A70508E508B40603E4F5087C
:01018200225A
:10018300EDD394105022EFC39406501CED90021748
:1001930093FEEF25E0240AF8A606EF90022793FECC
:0901A300EF25E02409F8A606226C
:0A01C00001170001180002150000ED
:0100160022C7
:0100170022C6
:060253001202420200AAA3
:1001FA0012000E758911758CFC758A6A758D4C759D
:0D020A008BBBD2AFD2A9D2ABD28CD28E2248
:1001D400E517B40A06E4F517120016E518B402068A
:1001E400E4F518120017E516641445157007F515A3
:0601F400F5161202532271
:03000B00020113DC
:10011300C0E0C0F0C083C082C0D075D000C000C0B2
:1001230001C002C003C004C005C006C007758CFC33
:10013300758A6A1201560517D007D006D005D00478
:10014300D003D002D001D000D0D0D082D083D0F061
:03015300D0E032C7
:03001B0002022DB1
:10022D00C0E0758D4C758BBB05180516E516700273
:05023D000515D0E032C0
:0901CA00011900011A00011B00DB
:1000AA00051BE51BB43C17E4F51B051AE51AB43C1D
:1000BA000DE4F51A0519E519B41803E4F519E5195B
:1000CA0075F00A84FDE4FF120183E51975F00A84CC
:1000DA00ADF07F01120183E51A75F00A84FD7F02F3
:1000EA00120183E51A75F00A84ADF07F03120183C9
:1000FA00E51B75F00A84FD7F04120183E51B75F088
:09010A000A84ADF07F05020183B7
:10002A00020003E493A3F8E493A34003F68001F2E9
:10003A0008DFF48029E493A3F85407240CC8C333D7
:10004A00C4540F4420C8834004F456800146F6DFA6
:10005A00E4800B01020408102040809001ACE47E89
:10006A00019360BCA3FF543F30E509541FFEE4939B
:10007A00A360010ECF54C025E060A840B8E493A362
:10008A00FAE493A3F8E493A3C8C582C8CAC583CA8D
:10009A00F0A3C8C582C8CAC583CADFE9DEE780BE45
:0101D300002B
:00000001FF
