:03000000020003F8
:0C000300787FE4F6D8FD75810B02004AFE
:04017C000208000075
:100129007C007D0A12008FEFD39400400B7E147D72
:08013900E4DDFEDEFA1F80EF99
:01014100229B
:1000E400120195120198AE08AF097C007D0A120036
:1000F4008FED4C7003120199AE08AF097C007D644A
:1001040012008FED4C700312018F0509E50970028E
:100114000508646445087004F508F5097F0A7E0043
:0501240012012980BE5C
:03018000010AFE73
:10015B00850A90AF0A7801EF08800123D8FDF50AD4
:01016B002271
:10016C003F065B4F666D7D077F6F777C395E7971DB
:03018300010B006D
:08018700D2A77580C0C2A722B7
:10014200D2A6E50B90016C93F580C2A6050BE50BD8
:08015200D3940F4003E4F50B08
:01015A002282
:010198002244
:010199002243
:06018F0012015B020142B7
:03019500020187DD
:10000F000200E4E493A3F8E493A34003F68001F223
:10001F0008DFF48029E493A3F85407240CC8C333F2
:10002F00C4540F4420C8834004F456800146F6DFC1
:10003F00E4800B010204081020408090017CE47ED4
:10004F00019360BCA3FF543F30E509541FFEE493B6
:10005F00A360010ECF54C025E060A840B8E493A37D
:10006F00FAE493A3F8E493A3C8C582C8CAC583CAA8
:10007F00F0A3C8C582C8CAC583CADFE9DEE780BE60
:010186000078
:10008F00BC000BBE0029EF8DF084FFADF022E4CC55
:10009F00F875F008EF2FFFEE33FEEC33FCEE9DEC1E
:1000AF00984005FCEE9DFE0FD5F0E9E4CEFD22ED64
:1000BF00F8F5F0EE8420D21CFEADF075F008EF2FAE
:1000CF00FFED33FD4007985006D5F0F222C398FD9F
:0500DF000FD5F0EA223C
:00000001FF
