:0300000002009B60
:0C009B00787FE4F6D8FD7581170200E2C2
:050219001201A380FEAC
:0301DF000117FE07
:1001F800851790AF177801EF08800123D8FDF51710
:0102080022D3
:100209003F065B4F666D7D077F6F777C395E79713D
:1001E2000C09FE00FD00FB00F700EF00DF00010834
:0101F200000C
:08000300D2A77580C0C2A7223C
:10017C00D2A6E50825E0240AF8E6F580C2A6D2A7A7
:10018C00E50825E02409F8E6F580C2A70508E5088E
:06019C00B40603E4F508BF
:0101A200223A
:1001C400EDD394105014EFC39406500EED90020931
:0B01D40093FEEF25E0240AF8A60622A7
:0401F30002150000F1
:0102210022BA
:0102220022B9
:03021E000201F8E2
:1001A3001200037D03E4FF1201C47D0A7F021201E2
:1001B300C4758901758CFC758A6AD2AFD2A9D28CB9
:0101C3002219
:03000B0002000EE2
:10000E00C0E0C0F0C083C082C0D075D000C000C0B8
:10001E0001C002C003C004C005C006C007758CFC39
:10002E00758A6A12017CAE15AF167C007D0A12012C
:10003E0027ED4C7003120221AE15AF167C007D64C5
:10004E00120127ED4C7003120222AE15AF167C037F
:10005E007DE8120127ED4C700312021E0516E516FF
:10006E0070020515B4E80BE515B403067515007599
:10007E001600D007D006D005D004D003D002D00190
:0D008E00D000D0D0D082D083D0F0D0E032AE
:1000A700020219E493A3F8E493A34003F68001F254
:1000B70008DFF48029E493A3F85407240CC8C3335A
:1000C700C4540F4420C8834004F456800146F6DF29
:1000D700E4800B01020408102040809001DFE47ED9
:1000E700019360BCA3FF543F30E509541FFEE4931E
:1000F700A360010ECF54C025E060A840B8E493A3E5
:10010700FAE493A3F8E493A3C8C582C8CAC583CA0F
:10011700F0A3C8C582C8CAC583CADFE9DEE780BEC7
:0101F7000007
:10012700BC000BBE0029EF8DF084FFADF022E4CCBC
:10013700F875F008EF2FFFEE33FEEC33FCEE9DEC85
:10014700984005FCEE9DFE0FD5F0E9E4CEFD22EDCB
:10015700F8F5F0EE8420D21CFEADF075F008EF2F15
:10016700FFED33FD4007985006D5F0F222C398FD06
:050177000FD5F0EA22A3
:00000001FF
