:0300000002008A71
:0C008A00787FE4F6D8FD75810702007154
:100058007C007D0A120003EFD39400400B7E147DD0
:08006800E4DDFEDEFA1F80EF6B
:01007000226D
:100071007BFE8B907FC87E001200587801AF03EFA2
:0900810008800123D8FDFB80E991
:10000300BC000BBE0029EF8DF084FFADF022E4CCE1
:10001300F875F008EF2FFFEE33FEEC33FCEE9DECAA
:10002300984005FCEE9DFE0FD5F0E9E4CEFD22EDF0
:10003300F8F5F0EE8420D21CFEADF075F008EF2F3A
:10004300FFED33FD4007985006D5F0F222C398FD2B
:050053000FD5F0EA22C8
:00000001FF
