:0300000002001EDD
:0C001E00787FE4F6D8FD75811E020065B5
:0800030012022B1201E780FB41
:03016300011EFE7C
:10027300851E90AF1E7801EF08800123D8FDF51E7F
:010283002258
:100248003F065B4F666D7D077F6F777C395E7971FE
:06025800FEFDFBF7EFDFE5
:100166000C09FF00FF00FF00FF00FF00FF00010871
:010176000088
:08000E00D2A77580C0C2A72231
:10019100E4F580D2A6E50825E0240AF8E6F580C258
:1001A100A67580FFD2A7E50825E02409F8E6F580C9
:0C01B100C2A70508E508B40603E4F50841
:0101BD00221F
:1001BE00EDD394105022EFC39406501CED900248DC
:1001CE0093FEEF25E0240AF8A606EF90025893FE60
:0901DE00EF25E02409F8A6062231
:0A0177000117000118000215000036
:0300160002020DD6
:0100190022C4
:060284001202730200AA41
:10022B0012000E758911758CFC758A6A758D4C756B
:0D023B008BB2D2AFD2A9D2ABD28CD28E2220
:1001E700E517B40A06E4F517120016E518B4020677
:1001F700E4F518120019E516641445157007F5158E
:06020700F516120284222C
:03000B00020120CF
:10012000C0E0C0F0C083C082C0D075D000C000C0A5
:1001300001C002C003C004C005C006C007758CFC26
:10014000758A6A1201910517D007D006D005D00430
:10015000D003D002D001D000D0D0D082D083D0F054
:03016000D0E032BA
:03001B0002025E80
:10025E00C0E0758D4C758BB205180516E51670024B
:05026E000515D0E0328F
:09018100011900011A00011B0024
:1000AA00051BE51BB43C17E4F51B051AE51AB43C1D
:1000BA000DE4F51A0519E519B41803E4F519120245
:1000CA008AEF6007E4F519F51AF51BE51975F00AC8
:1000DA0084FDE4FF1201BEE51975F00A84ADF07FD4
:1000EA00011201BEE51A75F00A84FD7F021201BEF3
:1000FA00E51A75F00A84ADF07F031201BEE51B759F
:10010A00F00A84FD7F041201BEE51B75F00A84AD76
:06011A00F07F050201BEAA
:06018A00011C00011D0034
:10020D0020B414E51D540304421DE51D5403FFBF26
:0E021D00030B431C018003531CFC531DFC22E9
:03028A00AF1C2284
:10002A00020003E493A3F8E493A34003F68001F2E9
:10003A0008DFF48029E493A3F85407240CC8C333D7
:10004A00C4540F4420C8834004F456800146F6DFA6
:10005A00E4800B0102040810204080900163E47ED2
:10006A00019360BCA3FF543F30E509541FFEE4939B
:10007A00A360010ECF54C025E060A840B8E493A362
:10008A00FAE493A3F8E493A3C8C582C8CAC583CA8D
:10009A00F0A3C8C582C8CAC583CADFE9DEE780BE45
:01019000006E
:00000001FF
