:0300000002001EDD
:0C001E00787FE4F6D8FD758132020065A1
:080003001202CB12026780FB20
:030173000132FE58
:10031700853290AF327801EF08800123D8FDF5329E
:0103270022B3
:10028D003F065B4F666D7D077F6F777C395E7971B9
:10029D00BF86DBCFE6EDFD87FFEFFEFDFBF7EFDF62
:100176000C1BFF00FF00FF00FF00FF00FF00011A3D
:010186000078
:08000E00D2A77580C0C2A72231
:1001E400E4F580D2A6E51A25E0241CF8E6F580C2E1
:1001F400A67580FFD2A7E51A25E0241BF8E6F58052
:0C020400C2A7051AE51AB40603E4F51AB7
:0102100022CB
:10023E00EDD3941A5022EFC39406501CED90028D0C
:10024E0093FEEF25E0241CF8A606EF9002A793FE7E
:09025E00EF25E0241BF8A606229E
:0A018700012E00012F00022C0000E1
:030016000202AD36
:0100190022C4
:060348001203170200AAD7
:1002CB0012000E758911758CFC758A66758D4CE460
:0D02DB00F58BD2AFD2A9D2ABD28CD28E223D
:10026700E52EB40A06E4F52E120016E52FB40206B1
:10027700E4F52F120019E52D6414452C7007F52CB1
:06028700F52D12034822D0
:03000B00020130BF
:10013000C0E0C0F0C083C082C0D075D000C000C095
:1001400001C002C003C004C005C006C007758CFC16
:10015000758A661201E4052ED007D006D005D004BA
:10016000D003D002D001D000D0D0D082D083D0F044
:03017000D0E032AA
:03001B00020302DB
:10030200C0E0758D4C758B00052F052DE52D700213
:05031200052CD0E032D3
:100191000F0B497427732074696D65206E6F773A70
:0A01A10000010800010900010A0036
:1000AA00050A7F0112034EE50AB43C1CE4F50A0571
:1000BA0009E509B43C12E4FF12034EE4F509050808
:1000CA00E508B41803E4F508120354EF6007E4F5F1
:1000DA0008F509F50AE50875F00A84FDE4FF12023D
:1000EA003EE50875F00A84E5F02410FD7F0112024E
:1000FA003EE50975F00A84FD7F0212023EE50975A4
:10010A00F00A84E5F02410FD7F0312023EE50A7529
:10011A00F00A84FD7F0412023EE50A75F00A84ADF6
:06012A00F07F0502023E19
:0601AB00013000013100EB
:1002AD0020B414E5315403044231E5315403FFBF4A
:0E02BD00030B43300180035330FC5331FC220D
:03035400AF3022A5
:06034E00EF24FF92A32240
:070328008F8012032FD2B4F5
:08032F007F057E6EDEFEDFFAA1
:0103370022A3
:08033800C2B5120328C2B42271
:08034000D2B5120328C2B42259
:1002E800C2A6C2A7C2B47F381203387F0C120338E3
:0A02F8007F061203387F010203386D
:0601B2008B288A29892A2E
:1001B800E4FDBF01047F8080027FC0120338E4FDA4
:1001C800EDC3952B5015AB28AA29A92A8D827583D2
:0B01D80000120211FF1203400D80E531
:0101E30022F9
:10002A00020003E493A3F8E493A34003F68001F2E9
:10003A0008DFF48029E493A3F85407240CC8C333D7
:10004A00C4540F4420C8834004F456800146F6DFA6
:10005A00E4800B0102040810204080900173E47EC2
:10006A00019360BCA3FF543F30E509541FFEE4939B
:10007A00A360010ECF54C025E060A840B8E493A362
:10008A00FAE493A3F8E493A3C8C582C8CAC583CA8D
:10009A00F0A3C8C582C8CAC583CADFE9DEE780BE45
:0101B100004D
:10021100BB010CE58229F582E5833AF583E02250A2
:1002210006E92582F8E622BBFE06E92582F8E222EC
:0D023100E58229F582E5833AF583E4932206
:00000001FF
